{
  "contractName": "Donate",
  "abi": [
    {
      "anonymous": false,
      "inputs": [
        {
          "indexed": false,
          "internalType": "uint256",
          "name": "donationId",
          "type": "uint256"
        },
        {
          "indexed": false,
          "internalType": "address",
          "name": "donor",
          "type": "address"
        },
        {
          "indexed": false,
          "internalType": "uint256",
          "name": "amount",
          "type": "uint256"
        },
        {
          "indexed": false,
          "internalType": "address",
          "name": "beneficiary",
          "type": "address"
        }
      ],
      "name": "NewDonation",
      "type": "event"
    },
    {
      "anonymous": false,
      "inputs": [
        {
          "indexed": true,
          "internalType": "address",
          "name": "staker",
          "type": "address"
        },
        {
          "indexed": false,
          "internalType": "uint256",
          "name": "amount",
          "type": "uint256"
        }
      ],
      "name": "Staked",
      "type": "event"
    },
    {
      "anonymous": false,
      "inputs": [
        {
          "indexed": true,
          "internalType": "address",
          "name": "unstaker",
          "type": "address"
        },
        {
          "indexed": false,
          "internalType": "uint256",
          "name": "amount",
          "type": "uint256"
        }
      ],
      "name": "Unstaked",
      "type": "event"
    },
    {
      "inputs": [],
      "name": "donationCount",
      "outputs": [
        {
          "internalType": "uint256",
          "name": "",
          "type": "uint256"
        }
      ],
      "stateMutability": "view",
      "type": "function",
      "constant": true
    },
    {
      "inputs": [
        {
          "internalType": "uint256",
          "name": "",
          "type": "uint256"
        }
      ],
      "name": "donations",
      "outputs": [
        {
          "internalType": "address",
          "name": "donor",
          "type": "address"
        },
        {
          "internalType": "uint256",
          "name": "amount",
          "type": "uint256"
        },
        {
          "internalType": "address",
          "name": "beneficiary",
          "type": "address"
        },
        {
          "internalType": "uint256",
          "name": "stakedBalance",
          "type": "uint256"
        },
        {
          "internalType": "uint256",
          "name": "unstakedBalance",
          "type": "uint256"
        }
      ],
      "stateMutability": "view",
      "type": "function",
      "constant": true
    },
    {
      "inputs": [
        {
          "internalType": "address",
          "name": "_beneficiary",
          "type": "address"
        }
      ],
      "name": "donate",
      "outputs": [],
      "stateMutability": "payable",
      "type": "function",
      "payable": true
    },
    {
      "inputs": [
        {
          "internalType": "address payable",
          "name": "beneficiary",
          "type": "address"
        }
      ],
      "name": "unstake",
      "outputs": [],
      "stateMutability": "nonpayable",
      "type": "function"
    }
  ],
  "bytecode": "0x6080604052600060015534801561001557600080fd5b50610b1c806100256000396000f3fe60806040526004361061003e5760003560e01c8062362a95146100435780632abfab4d1461005f578063f2888dbb1461008a578063f8626af8146100b3575b600080fd5b61005d6004803603810190610058919061060e565b6100f4565b005b34801561006b57600080fd5b50610074610343565b6040516100819190610654565b60405180910390f35b34801561009657600080fd5b506100b160048036038101906100ac91906106ad565b610349565b005b3480156100bf57600080fd5b506100da60048036038101906100d59190610706565b610535565b6040516100eb959493929190610742565b60405180910390f35b60003411610137576040517f08c379a000000000000000000000000000000000000000000000000000000000815260040161012e90610818565b60405180910390fd5b6040518060a001604052803373ffffffffffffffffffffffffffffffffffffffff1681526020013481526020018273ffffffffffffffffffffffffffffffffffffffff168152602001600081526020016000815250600080600154815260200190815260200160002060008201518160000160006101000a81548173ffffffffffffffffffffffffffffffffffffffff021916908373ffffffffffffffffffffffffffffffffffffffff1602179055506020820151816001015560408201518160020160006101000a81548173ffffffffffffffffffffffffffffffffffffffff021916908373ffffffffffffffffffffffffffffffffffffffff16021790555060608201518160030155608082015181600401559050506001600081548092919061026290610867565b919050555060008060006001805461027a91906108af565b815260200190815260200160002090503481600301600082825461029e91906108e3565b92505081905550806003015481600401819055507fe79ae7c746005385d9d41af2be9179e319af8bf0d1f0a7b7c78a3031827ad4e76001543334856040516102e99493929190610917565b60405180910390a13373ffffffffffffffffffffffffffffffffffffffff167f9e71bc8eea02a63969f509818f2dafb9254532904319f9dbda79b67bd34a5f3d346040516103379190610654565b60405180910390a25050565b60015481565b60006001541161038e576040517f08c379a0000000000000000000000000000000000000000000000000000000008152600401610385906109a8565b60405180910390fd5b6000805b6001548110156103f2576000806000838152602001908152602001600020905060008160040154905060008111156103dd5780846103d091906108e3565b9350600082600401819055505b505080806103ea90610867565b915050610392565b5060008111610436576040517f08c379a000000000000000000000000000000000000000000000000000000000815260040161042d90610a14565b60405180910390fd5b60008273ffffffffffffffffffffffffffffffffffffffff168260405161045c90610a65565b60006040518083038185875af1925050503d8060008114610499576040519150601f19603f3d011682016040523d82523d6000602084013e61049e565b606091505b50509050806104e2576040517f08c379a00000000000000000000000000000000000000000000000000000000081526004016104d990610ac6565b60405180910390fd5b8273ffffffffffffffffffffffffffffffffffffffff167f0f5bb82176feb1b5e747e28471aa92156a04d9f3ab9f45f28e2d704232b93f75836040516105289190610654565b60405180910390a2505050565b60006020528060005260406000206000915090508060000160009054906101000a900473ffffffffffffffffffffffffffffffffffffffff16908060010154908060020160009054906101000a900473ffffffffffffffffffffffffffffffffffffffff16908060030154908060040154905085565b600080fd5b600073ffffffffffffffffffffffffffffffffffffffff82169050919050565b60006105db826105b0565b9050919050565b6105eb816105d0565b81146105f657600080fd5b50565b600081359050610608816105e2565b92915050565b600060208284031215610624576106236105ab565b5b6000610632848285016105f9565b91505092915050565b6000819050919050565b61064e8161063b565b82525050565b60006020820190506106696000830184610645565b92915050565b600061067a826105b0565b9050919050565b61068a8161066f565b811461069557600080fd5b50565b6000813590506106a781610681565b92915050565b6000602082840312156106c3576106c26105ab565b5b60006106d184828501610698565b91505092915050565b6106e38161063b565b81146106ee57600080fd5b50565b600081359050610700816106da565b92915050565b60006020828403121561071c5761071b6105ab565b5b600061072a848285016106f1565b91505092915050565b61073c816105d0565b82525050565b600060a0820190506107576000830188610733565b6107646020830187610645565b6107716040830186610733565b61077e6060830185610645565b61078b6080830184610645565b9695505050505050565b600082825260208201905092915050565b7f446f6e6174696f6e20616d6f756e742073686f756c642062652067726561746560008201527f72207468616e20302e0000000000000000000000000000000000000000000000602082015250565b6000610802602983610795565b915061080d826107a6565b604082019050919050565b60006020820190508181036000830152610831816107f5565b9050919050565b7f4e487b7100000000000000000000000000000000000000000000000000000000600052601160045260246000fd5b60006108728261063b565b91507fffffffffffffffffffffffffffffffffffffffffffffffffffffffffffffffff82036108a4576108a3610838565b5b600182019050919050565b60006108ba8261063b565b91506108c58361063b565b92508282039050818111156108dd576108dc610838565b5b92915050565b60006108ee8261063b565b91506108f98361063b565b925082820190508082111561091157610910610838565b5b92915050565b600060808201905061092c6000830187610645565b6109396020830186610733565b6109466040830185610645565b6109536060830184610733565b95945050505050565b7f4e6f20646f6e6174696f6e206578697374730000000000000000000000000000600082015250565b6000610992601283610795565b915061099d8261095c565b602082019050919050565b600060208201905081810360008301526109c181610985565b9050919050565b7f4e6f20756e7374616b65642062616c616e636520617661696c61626c65000000600082015250565b60006109fe601d83610795565b9150610a09826109c8565b602082019050919050565b60006020820190508181036000830152610a2d816109f1565b9050919050565b600081905092915050565b50565b6000610a4f600083610a34565b9150610a5a82610a3f565b600082019050919050565b6000610a7082610a42565b9150819050919050565b7f4661696c656420746f207472616e736665722065746865720000000000000000600082015250565b6000610ab0601883610795565b9150610abb82610a7a565b602082019050919050565b60006020820190508181036000830152610adf81610aa3565b905091905056fea2646970667358221220af18beeb31bb51f948685edddf016eb45136c2c7229e001eacbb17218c2dbfbc64736f6c63430008130033",
  "immutableReferences": {},
  "source": "// // SPDX-License-Identifier: MIT\r\n// pragma solidity ^0.8.0;\r\n\r\n// contract Donate {\r\n//     struct DonationInfo {\r\n//         address donor;\r\n//         uint256 amount;\r\n//         address beneficiary;\r\n//     }\r\n\r\n//     mapping(uint256 => DonationInfo) public donations;\r\n//     uint256 public donationCount = 0;\r\n\r\n//     event NewDonation(uint256 donationId, address donor, uint256 amount, address beneficiary);\r\n//     event EtherSent(address indexed from, address indexed to, uint256 amount); // :   \r\n\r\n//     function donate(address _beneficiary, uint256 _amount) payable public {\r\n//         require(msg.value > 0, \"Donation amount should be greater than 0.\");\r\n//         donations[donationCount] = DonationInfo(msg.sender, _amount, _beneficiary);\r\n//         donationCount++;\r\n//         emit NewDonation(donationCount, msg.sender, _amount, _beneficiary);\r\n//     }\r\n\r\n//     function sendEther(address payable _to, uint256 _amount) public {\r\n//         require(_amount > 0, \"Sent amount should be greater than 0.\");\r\n//         require(address(this).balance >= _amount, \"Not enough balance in contract.\");\r\n//         _to.transfer(_amount);\r\n//         emit EtherSent(address(this), _to, _amount);\r\n//     }\r\n// }\r\n\r\npragma solidity ^0.8.0;\r\n\r\ncontract Donate {\r\n    struct DonationInfo {\r\n        address donor;\r\n        uint256 amount;\r\n        address beneficiary;\r\n        uint256 stakedBalance;\r\n        uint256 unstakedBalance;\r\n    }\r\n\r\n    mapping(uint256 => DonationInfo) public donations;\r\n    uint256 public donationCount = 0;\r\n\r\n    event NewDonation(uint256 donationId, address donor, uint256 amount, address beneficiary);\r\n    event Staked(address indexed staker, uint amount); // :  \r\n    event Unstaked(address indexed unstaker, uint amount); // :  \r\n\r\n    function donate(address _beneficiary) payable public {\r\n        require(msg.value > 0, \"Donation amount should be greater than 0.\");\r\n        donations[donationCount] = DonationInfo(msg.sender, msg.value, _beneficiary, 0, 0);\r\n        donationCount++;\r\n\r\n        //   \r\n        DonationInfo storage donation = donations[donationCount-1];\r\n        donation.stakedBalance += msg.value;\r\n        donation.unstakedBalance = donation.stakedBalance;\r\n\r\n        emit NewDonation(donationCount, msg.sender, msg.value, _beneficiary);\r\n        emit Staked(msg.sender, msg.value); // :   \r\n    }\r\n\r\nfunction unstake(address payable beneficiary) public {\r\n    require(donationCount > 0, \"No donation exists\");\r\n    uint256 totalUnstakedAmount = 0;\r\n    for (uint256 i = 0; i < donationCount; i++) {\r\n        DonationInfo storage donation = donations[i];\r\n        uint256 unstakedAmount = donation.unstakedBalance;\r\n        if (unstakedAmount > 0) {\r\n            totalUnstakedAmount += unstakedAmount;\r\n            donation.unstakedBalance = 0;\r\n        }\r\n    }\r\n    require(totalUnstakedAmount > 0, \"No unstaked balance available\");\r\n    (bool success, ) = beneficiary.call{value: totalUnstakedAmount}(\"\");\r\n    require(success, \"Failed to transfer ether\");\r\n    emit Unstaked(beneficiary, totalUnstakedAmount); // :   \r\n}\r\n\r\n}",
  "sourcePath": "C:\\Users\\Administrator\\downloads\\folder\\chaination\\src\\contracts\\Donate.sol",
  "compiler": {
    "name": "solc",
    "version": "0.8.19+commit.7dd6d404.Emscripten.clang"
  },
  "schemaVersion": "3.4.13",
  "updatedAt": "2023-04-06T09:39:07.681Z",
  "networkType": "ethereum",
  "devdoc": {
    "kind": "dev",
    "methods": {},
    "version": 1
  },
  "userdoc": {
    "kind": "user",
    "methods": {},
    "version": 1
  }
}