{
  "contractName": "Donate",
  "abi": [
    {
      "anonymous": false,
      "inputs": [
        {
          "indexed": false,
          "internalType": "uint256",
          "name": "donationId",
          "type": "uint256"
        },
        {
          "indexed": false,
          "internalType": "address",
          "name": "donor",
          "type": "address"
        },
        {
          "indexed": false,
          "internalType": "uint256",
          "name": "amount",
          "type": "uint256"
        },
        {
          "indexed": false,
          "internalType": "address",
          "name": "beneficiary",
          "type": "address"
        }
      ],
      "name": "NewDonation",
      "type": "event"
    },
    {
      "anonymous": false,
      "inputs": [
        {
          "indexed": true,
          "internalType": "address",
          "name": "staker",
          "type": "address"
        },
        {
          "indexed": false,
          "internalType": "uint256",
          "name": "amount",
          "type": "uint256"
        }
      ],
      "name": "Staked",
      "type": "event"
    },
    {
      "anonymous": false,
      "inputs": [
        {
          "indexed": true,
          "internalType": "address",
          "name": "unstaker",
          "type": "address"
        },
        {
          "indexed": false,
          "internalType": "uint256",
          "name": "amount",
          "type": "uint256"
        }
      ],
      "name": "Unstaked",
      "type": "event"
    },
    {
      "inputs": [],
      "name": "donationCount",
      "outputs": [
        {
          "internalType": "uint256",
          "name": "",
          "type": "uint256"
        }
      ],
      "stateMutability": "view",
      "type": "function",
      "constant": true
    },
    {
      "inputs": [
        {
          "internalType": "uint256",
          "name": "",
          "type": "uint256"
        }
      ],
      "name": "donations",
      "outputs": [
        {
          "internalType": "address",
          "name": "donor",
          "type": "address"
        },
        {
          "internalType": "uint256",
          "name": "amount",
          "type": "uint256"
        },
        {
          "internalType": "address",
          "name": "beneficiary",
          "type": "address"
        },
        {
          "internalType": "uint256",
          "name": "unstakedBalance",
          "type": "uint256"
        }
      ],
      "stateMutability": "view",
      "type": "function",
      "constant": true
    },
    {
      "inputs": [
        {
          "internalType": "bytes32",
          "name": "",
          "type": "bytes32"
        }
      ],
      "name": "stakingAccounts",
      "outputs": [
        {
          "internalType": "uint256",
          "name": "",
          "type": "uint256"
        }
      ],
      "stateMutability": "view",
      "type": "function",
      "constant": true
    },
    {
      "inputs": [
        {
          "internalType": "address",
          "name": "_beneficiary",
          "type": "address"
        },
        {
          "internalType": "uint256",
          "name": "donationId",
          "type": "uint256"
        }
      ],
      "name": "donate",
      "outputs": [],
      "stateMutability": "payable",
      "type": "function",
      "payable": true
    },
    {
      "inputs": [
        {
          "internalType": "address payable[]",
          "name": "beneficiaries",
          "type": "address[]"
        },
        {
          "internalType": "uint256",
          "name": "donationId",
          "type": "uint256"
        }
      ],
      "name": "unstake",
      "outputs": [],
      "stateMutability": "nonpayable",
      "type": "function"
    }
  ],
  "bytecode": "0x6080604052600060015534801561001557600080fd5b50610eab806100256000396000f3fe60806040526004361061004a5760003560e01c80632abfab4d1461004f5780635d0c27701461007a578063b3c9062c146100a3578063e69d849d146100e0578063f8626af8146100fc575b600080fd5b34801561005b57600080fd5b5061006461013c565b6040516100719190610b5b565b60405180910390f35b34801561008657600080fd5b506100a1600480360381019061009c9190610852565b610142565b005b3480156100af57600080fd5b506100ca60048036038101906100c591906108a6565b610431565b6040516100d79190610b5b565b60405180910390f35b6100fa60048036038101906100f59190610816565b610449565b005b34801561010857600080fd5b50610123600480360381019061011e91906108cf565b6106bc565b6040516101339493929190610a96565b60405180910390f35b60015481565b6000825111610186576040517f08c379a000000000000000000000000000000000000000000000000000000000815260040161017d90610adb565b60405180910390fd5b60008080600084815260200190815260200160002060020160009054906101000a900473ffffffffffffffffffffffffffffffffffffffff16836040516020016101d1929190610a6a565b604051602081830303815290604052805190602001209050600060026000838152602001908152602001600020549050600081111561042a5760005b85518110156102375781846102229190610c29565b9350808061022f90610d08565b91505061020d565b506000831161027b576040517f08c379a000000000000000000000000000000000000000000000000000000000815260040161027290610afb565b60405180910390fd5b60005b85518110156103f4578581815181106102c0577f4e487b7100000000000000000000000000000000000000000000000000000000600052603260045260246000fd5b602002602001015173ffffffffffffffffffffffffffffffffffffffff166108fc8751866102ee9190610c7f565b9081150290604051600060405180830381858888f19350505050610347576040517f08c379a000000000000000000000000000000000000000000000000000000000815260040161033e90610b3b565b60405180910390fd5b858181518110610380577f4e487b7100000000000000000000000000000000000000000000000000000000600052603260045260246000fd5b602002602001015173ffffffffffffffffffffffffffffffffffffffff167f0f5bb82176feb1b5e747e28471aa92156a04d9f3ab9f45f28e2d704232b93f758751866103cc9190610c7f565b6040516103d99190610b5b565b60405180910390a280806103ec90610d08565b91505061027e565b50600060026000848152602001908152602001600020819055506000806000868152602001908152602001600020600301819055505b5050505050565b60026020528060005260406000206000915090505481565b6000341161048c576040517f08c379a000000000000000000000000000000000000000000000000000000000815260040161048390610b1b565b60405180910390fd5b60405180608001604052803373ffffffffffffffffffffffffffffffffffffffff1681526020013481526020018373ffffffffffffffffffffffffffffffffffffffff168152602001600081525060008083815260200190815260200160002060008201518160000160006101000a81548173ffffffffffffffffffffffffffffffffffffffff021916908373ffffffffffffffffffffffffffffffffffffffff1602179055506020820151816001015560408201518160020160006101000a81548173ffffffffffffffffffffffffffffffffffffffff021916908373ffffffffffffffffffffffffffffffffffffffff16021790555060608201518160030155905050600160008154809291906105a490610d08565b9190505550600082826040516020016105be929190610a6a565b604051602081830303815290604052805190602001209050346002600083815260200190815260200160002060008282546105f99190610c29565b925050819055503460008084815260200190815260200160002060030160008282546106259190610c29565b925050819055507fe79ae7c746005385d9d41af2be9179e319af8bf0d1f0a7b7c78a3031827ad4e7823334866040516106619493929190610b76565b60405180910390a13373ffffffffffffffffffffffffffffffffffffffff167f9e71bc8eea02a63969f509818f2dafb9254532904319f9dbda79b67bd34a5f3d346040516106af9190610b5b565b60405180910390a2505050565b60006020528060005260406000206000915090508060000160009054906101000a900473ffffffffffffffffffffffffffffffffffffffff16908060010154908060020160009054906101000a900473ffffffffffffffffffffffffffffffffffffffff16908060030154905084565b600061073f61073a84610bec565b610bbb565b9050808382526020820190508285602086028201111561075e57600080fd5b60005b8581101561078e578161077488826107ad565b845260208401935060208301925050600181019050610761565b5050509392505050565b6000813590506107a781610e19565b92915050565b6000813590506107bc81610e30565b92915050565b600082601f8301126107d357600080fd5b81356107e384826020860161072c565b91505092915050565b6000813590506107fb81610e47565b92915050565b60008135905061081081610e5e565b92915050565b6000806040838503121561082957600080fd5b600061083785828601610798565b925050602061084885828601610801565b9150509250929050565b6000806040838503121561086557600080fd5b600083013567ffffffffffffffff81111561087f57600080fd5b61088b858286016107c2565b925050602061089c85828601610801565b9150509250929050565b6000602082840312156108b857600080fd5b60006108c6848285016107ec565b91505092915050565b6000602082840312156108e157600080fd5b60006108ef84828501610801565b91505092915050565b61090181610cb0565b82525050565b61091861091382610cb0565b610d51565b82525050565b600061092b601983610c18565b91507f4e6f2062656e656669636961726965732070726f7669646564000000000000006000830152602082019050919050565b600061096b601d83610c18565b91507f4e6f20756e7374616b65642062616c616e636520617661696c61626c650000006000830152602082019050919050565b60006109ab602983610c18565b91507f446f6e6174696f6e20616d6f756e742073686f756c642062652067726561746560008301527f72207468616e20302e00000000000000000000000000000000000000000000006020830152604082019050919050565b6000610a11601883610c18565b91507f4661696c656420746f207472616e7366657220657468657200000000000000006000830152602082019050919050565b610a4d81610cfe565b82525050565b610a64610a5f82610cfe565b610d75565b82525050565b6000610a768285610907565b601482019150610a868284610a53565b6020820191508190509392505050565b6000608082019050610aab60008301876108f8565b610ab86020830186610a44565b610ac560408301856108f8565b610ad26060830184610a44565b95945050505050565b60006020820190508181036000830152610af48161091e565b9050919050565b60006020820190508181036000830152610b148161095e565b9050919050565b60006020820190508181036000830152610b348161099e565b9050919050565b60006020820190508181036000830152610b5481610a04565b9050919050565b6000602082019050610b706000830184610a44565b92915050565b6000608082019050610b8b6000830187610a44565b610b9860208301866108f8565b610ba56040830185610a44565b610bb260608301846108f8565b95945050505050565b6000604051905081810181811067ffffffffffffffff82111715610be257610be1610ddd565b5b8060405250919050565b600067ffffffffffffffff821115610c0757610c06610ddd565b5b602082029050602081019050919050565b600082825260208201905092915050565b6000610c3482610cfe565b9150610c3f83610cfe565b9250827fffffffffffffffffffffffffffffffffffffffffffffffffffffffffffffffff03821115610c7457610c73610d7f565b5b828201905092915050565b6000610c8a82610cfe565b9150610c9583610cfe565b925082610ca557610ca4610dae565b5b828204905092915050565b6000610cbb82610cde565b9050919050565b6000610ccd82610cde565b9050919050565b6000819050919050565b600073ffffffffffffffffffffffffffffffffffffffff82169050919050565b6000819050919050565b6000610d1382610cfe565b91507fffffffffffffffffffffffffffffffffffffffffffffffffffffffffffffffff821415610d4657610d45610d7f565b5b600182019050919050565b6000610d5c82610d63565b9050919050565b6000610d6e82610e0c565b9050919050565b6000819050919050565b7f4e487b7100000000000000000000000000000000000000000000000000000000600052601160045260246000fd5b7f4e487b7100000000000000000000000000000000000000000000000000000000600052601260045260246000fd5b7f4e487b7100000000000000000000000000000000000000000000000000000000600052604160045260246000fd5b60008160601b9050919050565b610e2281610cb0565b8114610e2d57600080fd5b50565b610e3981610cc2565b8114610e4457600080fd5b50565b610e5081610cd4565b8114610e5b57600080fd5b50565b610e6781610cfe565b8114610e7257600080fd5b5056fea2646970667358221220eb0f9d4acaeceec626e1e564afe0e9d4ab490782e05881d47a09d2cc23917ca264736f6c63430008000033",
  "immutableReferences": {},
  "source": "pragma solidity ^0.8.0;\r\n\r\ncontract Donate {\r\n    struct DonationInfo {\r\n        address donor; //   \r\n        uint256 amount; //  \r\n        address beneficiary; //   \r\n        uint256 unstakedBalance; //   \r\n    }\r\n\r\n    mapping(uint256 => DonationInfo) public donations;\r\n    uint256 public donationCount = 0;\r\n\r\n    mapping(bytes32 => uint256) public stakingAccounts;\r\n\r\n    event NewDonation(uint256 donationId, address donor, uint256 amount, address beneficiary); \r\n    event Staked(address indexed staker, uint amount); // :  \r\n    event Unstaked(address indexed unstaker, uint amount); // :  \r\n\r\n    function donate(address _beneficiary, uint256 donationId) payable public { //   \r\n        require(msg.value > 0, \"Donation amount should be greater than 0.\");\r\n        donations[donationId] = DonationInfo(msg.sender, msg.value, _beneficiary, 0);\r\n        donationCount++;\r\n\r\n        // Create staking account for donor\r\n        bytes32 stakingAccount = keccak256(abi.encodePacked(_beneficiary, donationId)); // keccak256 hash function     \r\n        stakingAccounts[stakingAccount] += msg.value; //     \r\n        donations[donationId].unstakedBalance += msg.value;\r\n\r\n        emit NewDonation(donationId, msg.sender, msg.value, _beneficiary);\r\n        emit Staked(msg.sender, msg.value); // :   \r\n    }\r\n\r\n    function unstake(address payable[] memory beneficiaries, uint256 donationId) public {\r\n        require(beneficiaries.length > 0, \"No beneficiaries provided\");\r\n\r\n        uint256 totalUnstakedAmount = 0;\r\n        bytes32 stakingAccount = keccak256(abi.encodePacked(donations[donationId].beneficiary, donationId));\r\n        uint256 unstakedAmount = stakingAccounts[stakingAccount];\r\n        if (unstakedAmount > 0) {\r\n            for (uint256 j = 0; j < beneficiaries.length; j++) {\r\n                totalUnstakedAmount += unstakedAmount;\r\n            }\r\n            require(totalUnstakedAmount > 0, \"No unstaked balance available\");\r\n\r\n            for (uint256 i = 0; i < beneficiaries.length; i++) {\r\n                require(beneficiaries[i].send(totalUnstakedAmount / beneficiaries.length), \"Failed to transfer ether\");\r\n                emit Unstaked(beneficiaries[i], totalUnstakedAmount / beneficiaries.length);\r\n            }\r\n            stakingAccounts[stakingAccount] = 0;\r\n            donations[donationId].unstakedBalance = 0;\r\n        }\r\n    }\r\n}\r\n",
  "sourcePath": "C:\\Users\\joo\\Downloads\\asd\\d\\src\\contracts\\Donate.sol",
  "compiler": {
    "name": "solc",
    "version": "0.8.0+commit.c7dfd78e.Emscripten.clang"
  },
  "schemaVersion": "3.4.13",
  "updatedAt": "2023-05-10T21:15:23.882Z",
  "networkType": "ethereum",
  "devdoc": {
    "kind": "dev",
    "methods": {},
    "version": 1
  },
  "userdoc": {
    "kind": "user",
    "methods": {},
    "version": 1
  }
}