{
  "contractName": "Donate",
  "abi": [
    {
      "anonymous": false,
      "inputs": [
        {
          "indexed": false,
          "internalType": "uint256",
          "name": "donationId",
          "type": "uint256"
        },
        {
          "indexed": false,
          "internalType": "address",
          "name": "donor",
          "type": "address"
        },
        {
          "indexed": false,
          "internalType": "uint256",
          "name": "amount",
          "type": "uint256"
        },
        {
          "indexed": false,
          "internalType": "address",
          "name": "beneficiary",
          "type": "address"
        }
      ],
      "name": "NewDonation",
      "type": "event"
    },
    {
      "anonymous": false,
      "inputs": [
        {
          "indexed": true,
          "internalType": "address",
          "name": "staker",
          "type": "address"
        },
        {
          "indexed": false,
          "internalType": "uint256",
          "name": "amount",
          "type": "uint256"
        }
      ],
      "name": "Staked",
      "type": "event"
    },
    {
      "anonymous": false,
      "inputs": [
        {
          "indexed": true,
          "internalType": "address",
          "name": "unstaker",
          "type": "address"
        },
        {
          "indexed": false,
          "internalType": "uint256",
          "name": "amount",
          "type": "uint256"
        }
      ],
      "name": "Unstaked",
      "type": "event"
    },
    {
      "inputs": [],
      "name": "donationCount",
      "outputs": [
        {
          "internalType": "uint256",
          "name": "",
          "type": "uint256"
        }
      ],
      "stateMutability": "view",
      "type": "function",
      "constant": true
    },
    {
      "inputs": [
        {
          "internalType": "uint256",
          "name": "",
          "type": "uint256"
        }
      ],
      "name": "donations",
      "outputs": [
        {
          "internalType": "address",
          "name": "donor",
          "type": "address"
        },
        {
          "internalType": "uint256",
          "name": "amount",
          "type": "uint256"
        },
        {
          "internalType": "address",
          "name": "beneficiary",
          "type": "address"
        },
        {
          "internalType": "uint256",
          "name": "unstakedBalance",
          "type": "uint256"
        }
      ],
      "stateMutability": "view",
      "type": "function",
      "constant": true
    },
    {
      "inputs": [
        {
          "internalType": "bytes32",
          "name": "",
          "type": "bytes32"
        }
      ],
      "name": "stakingAccounts",
      "outputs": [
        {
          "internalType": "uint256",
          "name": "",
          "type": "uint256"
        }
      ],
      "stateMutability": "view",
      "type": "function",
      "constant": true
    },
    {
      "inputs": [
        {
          "internalType": "address",
          "name": "_beneficiary",
          "type": "address"
        },
        {
          "internalType": "uint256",
          "name": "donationId",
          "type": "uint256"
        }
      ],
      "name": "donate",
      "outputs": [],
      "stateMutability": "payable",
      "type": "function",
      "payable": true
    },
    {
      "inputs": [
        {
          "internalType": "address payable[]",
          "name": "beneficiaries",
          "type": "address[]"
        },
        {
          "internalType": "uint256",
          "name": "donationId",
          "type": "uint256"
        }
      ],
      "name": "unstake",
      "outputs": [],
      "stateMutability": "nonpayable",
      "type": "function"
    }
  ],
  "bytecode": "0x6080604052600060015534801561001557600080fd5b50610efa806100256000396000f3fe60806040526004361061004a5760003560e01c80632abfab4d1461004f5780635d0c27701461007a578063b3c9062c146100a3578063e69d849d146100e0578063f8626af8146100fc575b600080fd5b34801561005b57600080fd5b5061006461013c565b60405161007191906106f9565b60405180910390f35b34801561008657600080fd5b506100a1600480360381019061009c919061090b565b610142565b005b3480156100af57600080fd5b506100ca60048036038101906100c5919061099d565b6103e5565b6040516100d791906106f9565b60405180910390f35b6100fa60048036038101906100f59190610a08565b6103fd565b005b34801561010857600080fd5b50610123600480360381019061011e9190610a48565b610670565b6040516101339493929190610a84565b60405180910390f35b60015481565b6000825111610186576040517f08c379a000000000000000000000000000000000000000000000000000000000815260040161017d90610b26565b60405180910390fd5b60008080600084815260200190815260200160002060020160009054906101000a900473ffffffffffffffffffffffffffffffffffffffff16836040516020016101d1929190610baf565b60405160208183030381529060405280519060200120905060006002600083815260200190815260200160002054905060008111156103de5760005b85518110156102375781846102229190610c0a565b9350808061022f90610c3e565b91505061020d565b506000831161027b576040517f08c379a000000000000000000000000000000000000000000000000000000000815260040161027290610cd2565b60405180910390fd5b60005b85518110156103a85785818151811061029a57610299610cf2565b5b602002602001015173ffffffffffffffffffffffffffffffffffffffff166108fc8751866102c89190610d50565b9081150290604051600060405180830381858888f19350505050610321576040517f08c379a000000000000000000000000000000000000000000000000000000000815260040161031890610dcd565b60405180910390fd5b85818151811061033457610333610cf2565b5b602002602001015173ffffffffffffffffffffffffffffffffffffffff167f0f5bb82176feb1b5e747e28471aa92156a04d9f3ab9f45f28e2d704232b93f758751866103809190610d50565b60405161038d91906106f9565b60405180910390a280806103a090610c3e565b91505061027e565b50600060026000848152602001908152602001600020819055506000806000868152602001908152602001600020600301819055505b5050505050565b60026020528060005260406000206000915090505481565b60003411610440576040517f08c379a000000000000000000000000000000000000000000000000000000000815260040161043790610e5f565b60405180910390fd5b60405180608001604052803373ffffffffffffffffffffffffffffffffffffffff1681526020013481526020018373ffffffffffffffffffffffffffffffffffffffff168152602001600081525060008083815260200190815260200160002060008201518160000160006101000a81548173ffffffffffffffffffffffffffffffffffffffff021916908373ffffffffffffffffffffffffffffffffffffffff1602179055506020820151816001015560408201518160020160006101000a81548173ffffffffffffffffffffffffffffffffffffffff021916908373ffffffffffffffffffffffffffffffffffffffff160217905550606082015181600301559050506001600081548092919061055890610c3e565b919050555060008282604051602001610572929190610baf565b604051602081830303815290604052805190602001209050346002600083815260200190815260200160002060008282546105ad9190610c0a565b925050819055503460008084815260200190815260200160002060030160008282546105d99190610c0a565b925050819055507fe79ae7c746005385d9d41af2be9179e319af8bf0d1f0a7b7c78a3031827ad4e7823334866040516106159493929190610e7f565b60405180910390a13373ffffffffffffffffffffffffffffffffffffffff167f9e71bc8eea02a63969f509818f2dafb9254532904319f9dbda79b67bd34a5f3d3460405161066391906106f9565b60405180910390a2505050565b60006020528060005260406000206000915090508060000160009054906101000a900473ffffffffffffffffffffffffffffffffffffffff16908060010154908060020160009054906101000a900473ffffffffffffffffffffffffffffffffffffffff16908060030154905084565b6000819050919050565b6106f3816106e0565b82525050565b600060208201905061070e60008301846106ea565b92915050565b6000604051905090565b600080fd5b600080fd5b600080fd5b6000601f19601f8301169050919050565b7f4e487b7100000000000000000000000000000000000000000000000000000000600052604160045260246000fd5b6107768261072d565b810181811067ffffffffffffffff821117156107955761079461073e565b5b80604052505050565b60006107a8610714565b90506107b4828261076d565b919050565b600067ffffffffffffffff8211156107d4576107d361073e565b5b602082029050602081019050919050565b600080fd5b600073ffffffffffffffffffffffffffffffffffffffff82169050919050565b6000610815826107ea565b9050919050565b6108258161080a565b811461083057600080fd5b50565b6000813590506108428161081c565b92915050565b600061085b610856846107b9565b61079e565b9050808382526020820190506020840283018581111561087e5761087d6107e5565b5b835b818110156108a757806108938882610833565b845260208401935050602081019050610880565b5050509392505050565b600082601f8301126108c6576108c5610728565b5b81356108d6848260208601610848565b91505092915050565b6108e8816106e0565b81146108f357600080fd5b50565b600081359050610905816108df565b92915050565b600080604083850312156109225761092161071e565b5b600083013567ffffffffffffffff8111156109405761093f610723565b5b61094c858286016108b1565b925050602061095d858286016108f6565b9150509250929050565b6000819050919050565b61097a81610967565b811461098557600080fd5b50565b60008135905061099781610971565b92915050565b6000602082840312156109b3576109b261071e565b5b60006109c184828501610988565b91505092915050565b60006109d5826107ea565b9050919050565b6109e5816109ca565b81146109f057600080fd5b50565b600081359050610a02816109dc565b92915050565b60008060408385031215610a1f57610a1e61071e565b5b6000610a2d858286016109f3565b9250506020610a3e858286016108f6565b9150509250929050565b600060208284031215610a5e57610a5d61071e565b5b6000610a6c848285016108f6565b91505092915050565b610a7e816109ca565b82525050565b6000608082019050610a996000830187610a75565b610aa660208301866106ea565b610ab36040830185610a75565b610ac060608301846106ea565b95945050505050565b600082825260208201905092915050565b7f4e6f2062656e656669636961726965732070726f766964656400000000000000600082015250565b6000610b10601983610ac9565b9150610b1b82610ada565b602082019050919050565b60006020820190508181036000830152610b3f81610b03565b9050919050565b60008160601b9050919050565b6000610b5e82610b46565b9050919050565b6000610b7082610b53565b9050919050565b610b88610b83826109ca565b610b65565b82525050565b6000819050919050565b610ba9610ba4826106e0565b610b8e565b82525050565b6000610bbb8285610b77565b601482019150610bcb8284610b98565b6020820191508190509392505050565b7f4e487b7100000000000000000000000000000000000000000000000000000000600052601160045260246000fd5b6000610c15826106e0565b9150610c20836106e0565b9250828201905080821115610c3857610c37610bdb565b5b92915050565b6000610c49826106e0565b91507fffffffffffffffffffffffffffffffffffffffffffffffffffffffffffffffff8203610c7b57610c7a610bdb565b5b600182019050919050565b7f4e6f20756e7374616b65642062616c616e636520617661696c61626c65000000600082015250565b6000610cbc601d83610ac9565b9150610cc782610c86565b602082019050919050565b60006020820190508181036000830152610ceb81610caf565b9050919050565b7f4e487b7100000000000000000000000000000000000000000000000000000000600052603260045260246000fd5b7f4e487b7100000000000000000000000000000000000000000000000000000000600052601260045260246000fd5b6000610d5b826106e0565b9150610d66836106e0565b925082610d7657610d75610d21565b5b828204905092915050565b7f4661696c656420746f207472616e736665722065746865720000000000000000600082015250565b6000610db7601883610ac9565b9150610dc282610d81565b602082019050919050565b60006020820190508181036000830152610de681610daa565b9050919050565b7f446f6e6174696f6e20616d6f756e742073686f756c642062652067726561746560008201527f72207468616e20302e0000000000000000000000000000000000000000000000602082015250565b6000610e49602983610ac9565b9150610e5482610ded565b604082019050919050565b60006020820190508181036000830152610e7881610e3c565b9050919050565b6000608082019050610e9460008301876106ea565b610ea16020830186610a75565b610eae60408301856106ea565b610ebb6060830184610a75565b9594505050505056fea2646970667358221220441c13ce1da3f61de57bbce0333412683eb66c7bf8db8aee46b49e497b6e3dfd64736f6c63430008130033",
  "immutableReferences": {},
  "source": "pragma solidity ^0.8.0;\r\n\r\ncontract Donate {\r\n    struct DonationInfo {\r\n        address donor; //   \r\n        uint256 amount; //  \r\n        address beneficiary; //   \r\n        uint256 unstakedBalance; //   \r\n    }\r\n\r\n    mapping(uint256 => DonationInfo) public donations;\r\n    uint256 public donationCount = 0;\r\n\r\n    mapping(bytes32 => uint256) public stakingAccounts;\r\n\r\n    event NewDonation(uint256 donationId, address donor, uint256 amount, address beneficiary); \r\n    event Staked(address indexed staker, uint amount); // :  \r\n    event Unstaked(address indexed unstaker, uint amount); // :  \r\n\r\n    function donate(address _beneficiary, uint256 donationId) payable public { //   \r\n        require(msg.value > 0, \"Donation amount should be greater than 0.\");\r\n        donations[donationId] = DonationInfo(msg.sender, msg.value, _beneficiary, 0);\r\n        donationCount++;\r\n\r\n        // Create staking account for donor\r\n        bytes32 stakingAccount = keccak256(abi.encodePacked(_beneficiary, donationId)); // keccak256 hash function     \r\n        stakingAccounts[stakingAccount] += msg.value; //     \r\n        donations[donationId].unstakedBalance += msg.value;\r\n\r\n        emit NewDonation(donationId, msg.sender, msg.value, _beneficiary);\r\n        emit Staked(msg.sender, msg.value); // :   \r\n    }\r\n\r\n    function unstake(address payable[] memory beneficiaries, uint256 donationId) public {\r\n        require(beneficiaries.length > 0, \"No beneficiaries provided\");\r\n\r\n        uint256 totalUnstakedAmount = 0;\r\n        bytes32 stakingAccount = keccak256(abi.encodePacked(donations[donationId].beneficiary, donationId));\r\n        uint256 unstakedAmount = stakingAccounts[stakingAccount];\r\n        if (unstakedAmount > 0) {\r\n            for (uint256 j = 0; j < beneficiaries.length; j++) {\r\n                totalUnstakedAmount += unstakedAmount;\r\n            }\r\n            require(totalUnstakedAmount > 0, \"No unstaked balance available\");\r\n\r\n            for (uint256 i = 0; i < beneficiaries.length; i++) {\r\n                require(beneficiaries[i].send(totalUnstakedAmount / beneficiaries.length), \"Failed to transfer ether\");\r\n                emit Unstaked(beneficiaries[i], totalUnstakedAmount / beneficiaries.length);\r\n            }\r\n            stakingAccounts[stakingAccount] = 0;\r\n            donations[donationId].unstakedBalance = 0;\r\n        }\r\n    }\r\n}\r\n",
  "sourcePath": "C:\\Users\\joo\\Downloads\\asd\\a\\chaination\\src\\contracts\\Donate.sol",
  "compiler": {
    "name": "solc",
    "version": "0.8.19+commit.7dd6d404.Emscripten.clang"
  },
  "schemaVersion": "3.4.13",
  "updatedAt": "2023-04-28T17:05:31.227Z",
  "networkType": "ethereum",
  "devdoc": {
    "kind": "dev",
    "methods": {},
    "version": 1
  },
  "userdoc": {
    "kind": "user",
    "methods": {},
    "version": 1
  }
}